:020000040801F1
:10000000409E00209D01010873310108052501086B
:10001000DD3001088D0901083134020800000000BC
:1000200000000000000000000000000071E2010874
:10003000671E010800000000D532010845E90108EB
:10004000B7010108B9320108B7010108B701010879
:10005000B7010108B7010108B7010108B70101089C
:10006000B7010108B7010108B7010108B70101088C
:10007000B7010108B7010108B7010108B70101087C
:10008000B7010108B7010108B7010108B70101086C
:10009000B7010108B7010108B7010108B70101085C
:1000A000B7010108B7010108B7010108B70101084C
:1000B000B701010811EA0108B7010108B7010108F9
:1000C000B7010108B7010108B7010108B70101082C
:1000D000B7010108B7010108B7010108B70101081C
:1000E000B7010108B7010108B7010108B70101080C
:1000F000B7010108B7010108B7010108B7010108FC
:10010000B7010108B7010108B7010108B7010108EB
:10011000B7010108B7010108B7010108B7010108DB
:10012000B7010108B7010108B7010108B7010108CB
:10013000B7010108B7010108B7010108B7010108BB
:10014000B7010108B7010108B7010108B7010108AB
:10015000B7010108B7010108B7010108B70101089B
:10016000B7010108B7010108993201088932010875
:10017000B7010108A9320108B7010108B701010858
:10018000B7010108B7010108DFF80CD000F04EFB01
:100190000048004751530208409E0020064880470F
:1001A00006480047FEE7FEE7FEE7FEE7FEE7FEE75C
:1001B000FEE7FEE7FEE7FEE749E9010889010108DD
:1001C00040EA01039B0703D009E008C9121F08C0D9
:1001D000042AFAD203E011F8013B00F8013B521E59
:1001E000F9D27047D2B201E000F8012B491EFBD2D0
:1001F00070470022F6E710B513460A460446194632
:10020000FFF7F0FF204610BD2DE9FE4F804681EA42
:100210000300C00F0C46009021F0004123F0004580
:10022000B8EB0200A94105D24046214690461C4643
:100230000B46024623F00040104347D0270DC7F37A
:100240000A00C3F30A510290401A019040286BDA69
:10025000C3F3130040F4801B0098924620B10023A2
:10026000D2EB030A63EB0B0B01985946C0F1400235
:10027000504600F0FEF906460D4650465946019A92
:1002800000F016FA10EB08006141002487EA1152D1
:1002900084EAE7731A4340D0009A62B3019A012AB4
:1002A0004FEA075215DC001B61EB02014FF00042E0
:1002B00002EA0752CDE90042001C41F580113246A6
:1002C0002B4600F04DFA03B0BDE8F08F40462146C2
:1002D000F9E7001B61EB0201001C41F580130018D7
:1002E0005B412018A2F5001747EB030140EAD570E7
:1002F000B6196D4111E06D084FEA360645EAC07542
:100300004FEA0752001B61EB0201001C41F580110E
:1003100049084FEA30000019514132462B4603B0DC
:10032000BDE8F04F00F00DBA009801224000002314
:10033000D0EB020263EBE073009821464FEAE074D1
:10034000B8EB000061EB0401E9E783F000435BE7F1
:1003500081F0004158E72DE9FE4F81EA030404F0E3
:10036000004421F0004100944FF0000B23F00043C3
:1003700050EA01045ED052EA03045BD0C3F30A548E
:10038000C1F30A552C44A4F2F3340194A0FB0254A7
:10039000C1F3130141F48011C3F3130343F4801339
:1003A00001FB024400FB034E840A970A44EA81548D
:1003B00047EA8357A4FB076802958D0A05FB07856A
:1003C0004FEA932C04FB0C542705029D4FEA065874
:1003D00047EA1637B5EB08056EEB070C870E920E51
:1003E00047EA811742EA8312A7FB0201B6EB0B0131
:1003F00064EB00042B0D43EA0C335E1844EB1C50F5
:10040000DA465146E7FB0201C5F313044FEA0B330A
:1004100043EA14534FEA0432019C43EA0603A4F171
:100420000C040294009CCDE900B400F099F903B0EB
:10043000BDE8F08F00200146F9E72DE9F04D81EA93
:10044000030404F0004B21F0004514464FF0000A6D
:1004500023F0004150EA050220D054EA01021DD0E9
:10046000C5F30A570246C5F31303C1F31300C1F3E2
:100470000A5640F4801543F48013A7EB0608101BBE
:10048000D64608F2FD3873EB050002D308F10108E7
:1004900001E092185B41B8F1000F03DA0020014639
:1004A000BDE8F08D00204FF48011064684460EE032
:1004B000171B73EB050705D3121B63EB05030643FC
:1004C0004CEA010C49084FEA300092185B4150EAAF
:1004D0000107EDD152EA030012D082EA040083EA58
:1004E0000501084305D0101BAB4106D201220023B1
:1004F00006E000224FF0004302E06FF001025310CB
:100500001AEB06004CEB085110EB0A0041EB0B0113
:10051000BDE8F04D00F015B90EB5C10F80EAE070EE
:100520000844CA07002140F233438DE80E000A4612
:100530000B4600F015F903B000BD0EB540F2334193
:1005400002910021CDE900110A460B4600F008F99E
:1005500003B000BD00F0004230F000400AD0C10DF1
:1005600001F56071C0F3160042EA0151C20840076C
:1005700011437047002001467047000030B5041E4B
:1005800071F1000404DB4FF00044404264EB0101D0
:10059000141E73F1000405DB1C464FF00043524269
:1005A00063EB0403994208BF904230BD01F0004361
:1005B00030B421F0004150EA010206D00A0DA2F544
:1005C0006072C1F31301002A02DC30BC00207047C6
:1005D000440F44EAC104C100E01830BC00EBC25033
:1005E00000F078B830B50B460146002020220124E7
:1005F00009E021FA02F59D4205D303FA02F5491BF1
:1006000004FA02F52844151EA2F10102F1DC30BD06
:100610002DE9F05F0546002092469B468846064637
:10062000814640241BE0284641464746224600F0CA
:100630002FF853465A46C01A914110D31146184616
:10064000224600F016F82D1A67EB01084F462246A5
:100650000120002100F00DF817EB00094E41201E8B
:10066000A4F10104DFDC484631462A464346BDE892
:10067000F09F202A04DB203A00FA02F100207047A4
:100680009140C2F1200320FA03F3194390407047D0
:10069000202A04DB203A21FA02F00021704721FAD7
:1006A00002F3D040C2F1200291400843194670473E
:1006B000202A06DBCB17203A41FA02F043EAE07326
:1006C00006E041FA02F3D040C2F120029140084313
:1006D000194670470029A8BF7047401C490008BF51
:1006E00020F00100704710B4B0FA80FC00FA0CF062
:1006F00050EA010404BF10BC704749B1CCF120049A
:1007000021FA04F411FA0CF118BF01212143084326
:10071000A3EB0C01CB1D4FEA00614FEA102042BF52
:10072000002010BC704700EBC35010440029A4BF48
:1007300010BC7047401C490008BF20F0010010BCED
:10074000704710B5141E73F1000408DA401C41F123
:10075000000192185B411A4301D120F0010010BD45
:100760002DE9F04D92469B4611B1B1FA81F202E0BB
:10077000B0FA80F220329046FFF77BFF04460F4626
:1007800040EA0A0041EA0B0153465A46084313D097
:10079000114653EA010019D0C8F140025046FFF754
:1007A00077FF05460E46504659464246FFF761FF21
:1007B000084305D0012004E020463946BDE8F08D0D
:1007C0000020054346EAE0762C4337430A98630548
:1007D000E40AA0EB08000022FD0A44EA47540A306C
:1007E00002D500200146E9E7010510196941DDE95C
:1007F000084500196941BDE8F04DA2E7C1F30A526E
:10080000C1F3130140F2FF3341F480119A4202DA3E
:1008100000200146704740F233439A42A2F233422D
:1008200002DC5242FFF734BFFFF723BF064C074DEF
:1008300006E0E06840F0010394E8070098471034B0
:10084000AC42F6D3FFF7A4FC9C5C0208BC5C020837
:1008500070B58C1810F8015B15F0070301D110F882
:10086000013B2A1106D110F8012B03E010F8016BAF
:1008700001F8016B5B1EF9D12B0705D40023521E32
:100880000DD401F8013BFAE710F8013BCB1A921C9A
:1008900003E013F8015B01F8015B521EF9D5A14298
:1008A000D8D3002070BD00001CB5012108460BF014
:1008B00079FE012110200BF075FE0220009001202E
:1008C0008DF8040000208DF8060003208DF8050047
:1008D00001208DF807006946094801F04FFD4FF4EB
:1008E000007000906946074801F048FD4FF4007120
:1008F000044801F0B7FD0221014801F0B5FD1CBD1F
:10090000000002400010024038B50446022044F2C4
:10091000672300228A2100901B4802F023F801205F
:1009200014F0B0FC022044F26723002280210090E2
:10093000154802F017F8012014F0A4FCA07F01284C
:1009400021D194F82A0001281DD1207F617F40EA3F
:10095000012502202B4605228A2100900A4802F038
:1009600001F8012014F08EFC207E617E40EA012512
:1009700002202B46052280210090034801F0F2FF5F
:10098000012014F07FFC38BD0054004000BFFEE79A
:1009900030B5034600240BE013F8015B85EA222002
:1009A000C0B2054D35F8100080EA022082B2641C06
:1009B0008C42F1D3104630BD585A02082DE9F04F51
:1009C00007468C46904699464FF0000B00239E4602
:1009D000BCF1000F03D0BCF1010F06D102E047F2D9
:1009E000175405E040F6E77402E04FF4806400BF5E
:1009F00000BF07B9240108FB04F0850A09FB04F0D5
:100A0000860A15B1B002B0FBF5FB0BF101004308FB
:100A1000099810B1012874D138E0402B04D84FF464
:100A2000F9714FF4DF7230E0802B04D84FF4057178
:100A300040F2D12229E0C02B04D840F23F2140F2FD
:100A40007B3222E0B3F5807F04D84FF41C7140F272
:100A5000FE321AE0B3F59C7F04D840F26F114FF4D8
:100A6000FE7212E0B3F5CD7F02D8D221FB220CE05A
:100A700040F29A20834202D81821122205E040F267
:100A80009A20834201D9002100223AE0432B04D866
:100A90004FF4017140F2AD1232E0852B04D84FF4CF
:100AA0000A7140F2C1222BE0C82B04D840F2532136
:100AB00040F2633224E0B3F5857F04D840F282210E
:100AC00040F2DF321CE0B3F5A77F04D240F2771189
:100AD00040F2DD1214E0B3F5CD7F04D840F20111ED
:100AE00040F227120CE040F29A20834202D83721CC
:100AF0002B2205E040F29A20834201D900210022F6
:100B000000BF00BF05FB01F006FB120A0AF5005A00
:100B10004FEA9A3E7046BDE8F08F00002DE9FF4194
:100B20000446E0790006A17940EA0140617940EA93
:100B30000120217940EA0108B8F5FA3F01D94FF4C4
:100B4000FA3808F5C840401E4FF4C841B0FBF1F038
:100B5000401CC6B2607A08B9207A18B3607A8DF862
:100B60000C00207A8DF80D0003AA0221802014F0D9
:100B7000DBFC052014F086FB01204FF47A73002281
:100B80001146009002A814F007FD58B9F02020701B
:100B900001206070FF20A070E07050A013F0E8FE0C
:100BA000BDE8FF81E07A012801D153490870A77898
:100BB000012F05D100221146022014F0B5FC0AE0F5
:100BC00000208DF80400E0788DF8050001AA0221CC
:100BD000084614F0A9FC012040F2DC530022114623
:100BE000009002A814F0D8FC50B9F0202070012029
:100BF0006070FF20A070E07040A013F0B9FECFE756
:100C0000F02020700020607042480078A0704148B9
:100C10000088000AE0703F480068000C20713D48E1
:100C20000068000E6071FF20A071E07101254FE0A7
:100C300000200CF0D7FF10B90DF0E4FB4AE0012DC5
:100C400004D14021204612F0DDFB01E00DF036FC1E
:100C50000121314801F006FC304A4FF4C8413048C8
:100C600002F0B8F900BF4FF0C0512D48183001F024
:100C7000A3F80028F7D000BF4FF08151284801F0B9
:100C80009BF80028F8D00021254800F0D3FF002170
:100C90002348183000F0CEFF4FF08151204800F07B
:100CA000AFFF4FF0C0511E48183000F0A9FF0121DE
:100CB000194801F0D9FB4FF4C841184812F0A2FBC3
:100CC0000CF05EFF10B90DF09DFB03E0681CC5B28F
:100CD000B542ADDB00BF00BF62E700005265616452
:100CE0007920666F72206C696E6574696D65206528
:100CF00072726F72210D0A008401002052656164D6
:100D00007920666F7220636D64206572726F723233
:100D1000210D0A008C010020000002403C09002047
:100D200040640240F0B587B00446E0790006A1793E
:100D300040EA0140617940EA0120217940EA010757
:100D4000B7F5FA3F01D94FF4FA3707F5C840401E0E
:100D50004FF4C841B0FBF1F0401CC6B2607A08B94C
:100D6000207AF0B1607A8DF81800207A8DF8190099
:100D700006AA0221802014F0D7FB052014F082FA85
:100D800001204FF47A7300221146009005A814F058
:100D900003FC30B90DF036FB56A013F0E9FD07B0A7
:100DA000F0BDA0788DF80800A07A8DF80900E07AEF
:100DB0008DF80A00207B8DF80B00607B8DF80C000D
:100DC0009DF8080002280BD1A07B8DF80D00E07B78
:100DD0008DF80E00207C8DF80F00607C8DF81000DF
:100DE000E07C012801D14A49087002AA092110209B
:100DF00014F09AFB012014F045FA012040F2DC5374
:100E000000221146009005A814F0C6FB28B90DF089
:100E1000F9FA40A013F0ACFDC1E7F02020700020EB
:100E2000607042480078A07040480088000AE07076
:100E30003E480068000C20713C480068000E60715C
:100E4000FF20A071E07101254FE000200CF0CAFEE8
:100E500010B90DF0D7FA4AE0012D04D14021204607
:100E600012F0D0FA01E00DF029FB0121304801F029
:100E7000F9FA304A4FF4C8412F4802F0ABF800BFEE
:100E80004FF0C0512C48183000F096FF0028F7D0E2
:100E900000BF4FF08151284800F08EFF0028F8D0A5
:100EA0000021254800F0C6FE00212348183000F03C
:100EB000C1FE4FF08151204800F0A2FE4FF0C0511A
:100EC0001D48183000F09CFE0121194801F0CCFAB1
:100ED0004FF4C841174812F095FA0CF051FE10B9C2
:100EE0000DF090FA03E0681CC5B2B542ADDB00BF5F
:100EF00000BF54E7526561647920666F72206C69A7
:100F00006E6574696D65206572726F72210D0A00DD
:100F100084010020526561647920666F7220636DE0
:100F200064206572726F7232210D0A008C010020FC
:100F3000000002403C0900204064024010B5024617
:100F40000B460020002103E0545C0444A0B2491C7D
:100F50009942F9D310BD1CB50446F0202070002042
:100F60006070A21C1F210A2014F0DEFA052014F084
:100F700089F901204FF4FA7300221146009001A86C
:100F800014F00AFB08B901206070FF20A070E07027
:100F90004021204612F036FA1CBD000070B505460F
:100FA0000E4630E0002418E01B48005D28551B4821
:100FB000008804EB4020B0420DD118490988184A36
:100FC00002EB4120621C29460DF0B0F800201349C5
:100FD0000880012070BD601C84B2B4F5007FE3DBA3
:100FE0000E4909880E4A02EB41204FF4007229464F
:100FF0000DF09CF809480088401C084908800DF055
:101000005DFA0020E6E70548008840F2DC5188429E
:10101000C8DB0120DEE700003C7D0020AC010020A1
:101020000000040810B501228A21024801F0CCFB1F
:1010300010BD00000054004010B50122802102487C
:1010400001F0C2FB10BD00000054004000B587B0A5
:10105000012108460BF0A6FA012148070BF0B2FA6D
:101060001020059003208DF8180000208DF81B003B
:1010700005A90B4801F082F900200190029003902D
:101080000220049001A9002000F020F80121002096
:1010900000F008F80021084600F032F807B000BD63
:1010A0000000024039B1084A1268012383401A4304
:1010B000054B1A6006E0044A1268012383409A43F4
:1010C000014B1A60704700000074004030B50022E8
:1010D00000230A4C226840F6FE748440A243D1E902
:1010E00000452C438D682C43CD6844EA050303FA80
:1010F00000F42243014C226030BD00000074004027
:1011000008B500220092054A009200F10802009BF7
:101110001A440092009A116008BD0000007400405B
:1011200070B506460C4604F08000802808D104F013
:101130007F0000EB800106F58E7000EBC10507E033
:1011400004F07F0000EB800106F55D7000EBC10547
:1011500004F07F00287004F08000C0096870294600
:10116000304611F0EEFD002070BD70B506460C460D
:1011700004F08000802808D104F07F0000EB80019B
:1011800006F58E7000EBC10505E004EB840106F561
:101190005D7000EBC1050020A87004F07F0028708E
:1011A000C4F3C01068702946304611F0A2FD00203B
:1011B00070BD2DE9F04106460D4690461F4605F0EC
:1011C0008000802808D105F07F0000EB800106F543
:1011D0008E7000EBC10407E005F07F0000EB80019A
:1011E00006F55D7000EBC10405F07F00207005F08E
:1011F0008000C0096070C4F80880E770607808B1AA
:101200002078E080022F01D1002020712146304655
:1012100011F017FD0020BDE8F0812DE9F0410546F1
:101220000E461746984606F07F0000EB800105F554
:101230005D7000EBC104E760C4F814800020A06179
:10124000607006F07F002070E878012800D12761E7
:10125000207820B92146284611F017FC03E02146EA
:10126000284611F0DBFD0020BDE8F08108B5002222
:101270000092009A61F30A12009202691268009BC0
:101280001A4303691A6008BD70B506460C4604F09F
:101290008000802808D104F07F0000EB800106F573
:1012A0008E7000EBC10505E004EB840106F55D706E
:1012B00000EBC1050120A87004F07F002870C4F382
:1012C000C01068702946304611F076FD002070BDD0
:1012D0002DE9F04107460D461646984605F07F0079
:1012E00000EB800107F58E7000EBC10401206070F7
:1012F00005F07F002070E66026610020A061C4F840
:101300001480207820B92146384611F0BEFB03E056
:101310002146384611F082FD0020BDE8F081000032
:1013200030B587B00546594C284611F074FB01A82A
:101330000BF088F9029CE868C0680590059820F4D5
:10134000705005900598E968C860284611F038FF8C
:1013500003280BD10020A8704FF40070A8800598D6
:1013600020F4705000F5105005907EE00120A87028
:101370004020A8804648844209D34648844206D289
:10138000059820F4705000F5605005906DE04148DC
:10139000844209D34048844206D2059820F4705014
:1013A00000F55050059060E03B48844209D33B482B
:1013B000844206D2059820F4705000F54050059004
:1013C00053E03648844209D33548844206D2059812
:1013D00020F4705000F53050059046E030488442CB
:1013E00009D33048844206D2059820F4705000F5A5
:1013F0002050059039E02B48844209D32A48844282
:1014000006D2059820F4705000F5105005902CE09D
:101410002548844209D32548844206D2059820F401
:10142000705000F5005005901FE02048844209D319
:101430001F48844206D2059820F4705000F5E05011
:10144000059012E01A48844209D31A48844206D211
:10145000059820F4705000F5C050059005E00598FF
:1014600020F4705000F5A05005900598E968C86018
:1014700000200690069820F4005000F500500690D9
:101480000698E9684861012007B030BD007A030A78
:10149000C0E1E4000024F400E0EC040100C3180102
:1014A000002D310140A44C0100366E0140E295014F
:1014B00080C3C90160600B02F8B505460024002016
:1014C0000090284611F0BDFE064681E006F00100BE
:1014D00000287BD0E1B2284600F012FB0090009873
:1014E00000F0010030B3012000FA04F72869406BD6
:1014F000B8432969486300200090009820F001005B
:10150000401C009005F1180050F8240000998160FB
:10151000E1B232480068426828469047E8780128DE
:1015200008D13CB940F21110405D042802D1284690
:1015300011F056FB0098C0F3C00060B1002000908D
:10154000009820F008000830009005F1180050F8CD
:101550002400009981600098C0F3001060B1002061
:101560000090009820F010001030009005F1180055
:1015700050F82400009981600098C0F3801060B199
:1015800000200090009820F040004030009005F1CD
:10159000180050F82400009981600098C0F34000C2
:1015A00060B100200090009820F00200801C0090A4
:1015B00005F1180050F82400009981600098C0F3EC
:1015C000C01018B12146284600F0C4FA641C760801
:1015D000002E7FF47BAF0120F8BD0000B802002090
:1015E0007CB50446002500200190204611F031FE14
:1015F00006466FE006F00100002869D0E9B22046F7
:1016000011F02FFE0190019800F00100C8B30020F6
:101610000190019820F00100401C019004F1540059
:1016200050F8250001998160E078012817D104F174
:10163000540050F825000069009005EB850104F581
:101640005D7000EBC10080680099C1F31201411A7E
:1016500005EB850204F55D7000EBC2008161E9B223
:101660001E480068026820469047E078012808D1AB
:101670003DB940F21110005D052802D1204611F05D
:10168000AFFA0198C0F3400060B1002001900198CA
:1016900020F00200801C019004F1540050F8250055
:1016A000019981600198C0F3C00088B10B480068BF
:1016B00081682046884700200190019820F00800AA
:1016C0000830019004F1540050F825000199816020
:1016D0006D1C7608002E8DD101207CBDB802002043
:1016E0003EB50446A07A78B1D4F80C0100680090A9
:1016F000009820F002000090009820F00100009077
:101700000099D4F80C01016000200190019820F0AC
:101710000100401C019020694068019988432169BB
:101720004860094800688169204688470020029087
:10173000029820F0004000F1004002900298E16819
:10174000486101203EBD0000B80200207CB504467F
:1017500000200190019820F0100010300190E06806
:10176000806901998843E1688861E068006A0090B7
:10177000009800F00F0000EB800104F55D7000EBB5
:10178000C1050098C0F3434007282DD2DFE800F0E0
:101790002C04051D1E2C1F0027E00098C0F30A1022
:1017A00090B10098C0F30A122046E96811F063FD79
:1017B000E8680099C1F30A110844E860A869009933
:1017C000C1F30A110844A8610FE00EE00DE0082201
:1017D00004F2CC51204611F04EFDA8690099C1F3E6
:1017E0000A110844A86100E000BF00BFE0688069FA
:1017F00001990843E168886101207CBD38B5044641
:1018000008480068C168204688470020009000987A
:1018100020F00800083000900098E168486101203D
:1018200038BD0000B80200201FB50446002000901B
:101830004FF48970005D009023480068416920469C
:10184000884720698068019000200390039820F465
:10185000006000F5006003900398E1684861A07A99
:1018600070B3019800F0010050B340F21510005D14
:10187000012825D19DF80000032821D100200290E5
:10188000029820F00100401C0290D4F80C0100687E
:1018900002990843D4F80C110860029820F0020065
:1018A000801C0290D4F80C01006802990843D4F817
:1018B0000C1108600548006840F006000349086004
:1018C000012004B010BD0000B802002010ED00E0BF
:1018D00030B587B004460020029006900590049031
:1018E00003900190029820F00100401C02902069B2
:1018F000406802998843216948600021204611F020
:1019000035FC00250BE0FF2104F1180050F82500FC
:10191000816004F1540050F8250081606D1C6078EE
:10192000A842F0D84FF0FF312069816106986FF32B
:101930000F00401C0690069880B200F5803006909B
:1019400006992069C161059820F0080008300590CB
:10195000059820F00100401C0590059820F0020039
:10196000801C059005992069416105992069C0F89E
:101970008410049820F00100401C0490049820F08A
:10198000080008300490049820F00200801C0490A5
:101990000499206901610499206941642069006803
:1019A0000390039820F4FE6003900399206901607E
:1019B000204611F015F900200190019820F4805084
:1019C00000F5805001900198E16848610348006883
:1019D000016920468847012007B030BDB8020020C9
:1019E0002DE9F04106460F463946304611F058FCC5
:1019F00001214FF4897081550021801C81550025FB
:101A000011E005EB850106F58E7000EBC1040120A5
:101A100060702570E5800020E0704020A06000200C
:101A2000E06060616D1C7078A842EAD8002510E083
:101A300005EB850106F55D7000EBC10400206070C8
:101A40002570E580E0704020A0600020E0606061CB
:101A50006D1C7078A842EBD8304610F0CBFF3046B2
:101A600010F0D8FD0021304611F084FC304610F013
:101A70005EFE304611F043FBBDE8F08138B5044608
:101A80000020009007480068C169204688470098F8
:101A900020F4801000F5801000900098E168486103
:101AA000012038BDB802002038B50446002000905F
:101AB00007480068016A20468847009820F4001013
:101AC00000F5001000900098E1684861012038BDE1
:101AD000B802002038B50446E068406800900098DD
:101AE000C0F3800020B105480068816A204688471D
:101AF0000098E1684860012038BD0000B80200206D
:101B000030B5024615692B6915696C6B24FA01F52D
:101B100005F0010543EAC51302F1180555F82150F7
:101B2000AD6805EA030030BD38B5044608480068D2
:101B3000416A2046884700200090009820F08040AD
:101B400000F1804000900098E1684861012038BDB4
:101B5000B80200202DE9F84306460F460025002074
:101B6000009007EB870106F58E7000EBC104D4E905
:101B70000501451AA068A84200D2A568E81C4FEAF2
:101B8000900806F1180050F827008069009029E0BD
:101B9000D4E90501451AA068A84200D2A568E81C4E
:101BA0004FEA9008ABB2FAB23046E16811F009FC96
:101BB000E0682844E060A0692844A06106F11800AC
:101BC00050F8270080690090D4E90501884209D1C6
:101BD0002178012000FA01F93069406B20EA090000
:101BE00031694863009880B2404506D9D4E90510B0
:101BF000884202D260690028CAD10120BDE8F8837A
:101C00000246094B9A4201D2084801E006481038C2
:101C100001F000531BB1064B0B40C36002E0044BC4
:101C20000B40836070470000106402400060024077
:101C30007D0F7D0F21B1026842F00102026003E0D6
:101C4000026822F00102026070470000016821F082
:101C5000010101600021016041608160C16001619A
:101C6000212141614A49884204D13D21484A103A24
:101C700091608CE046491831884205D14FF4746177
:101C8000434A103A916082E041493031884205D19F
:101C90004FF474113E4A103A916078E03C49483163
:101CA000884205D14FF07461394A103A91606EE074
:101CB00037496031884204D13649354A103AD160FB
:101CC00065E033497831884204D13349304A103ACB
:101CD000D1605CE02E499031884204D12F492C4AD2
:101CE000103AD16053E02A49A831884205D14FF01B
:101CF0003D51274A103AD16049E02949884204D130
:101D00003D21274A083A116041E0254918318842AF
:101D100005D14FF47461224A083A116037E0204936
:101D20003031884205D14FF474111D4A083A1160D0
:101D30002DE01B494831884205D14FF07461184AA3
:101D4000083A116023E016496031884204D11149F4
:101D5000134A121F11601AE011497831884204D1E8
:101D60000D490F4A121F116011E00D499031884250
:101D700004D10A490A4A121F116008E00849A83133
:101D8000884204D14FF03D51054A121F116070473F
:101D9000106002403D000020400F002000003D2068
:101DA00010640240014600200A6802F001020AB1F4
:101DB000012000E00020704730B503460A460020AD
:101DC00000240B4DAB4201D20A4901E00849103909
:101DD00002F000550DB14C6800E00C68064D2C4037
:101DE00004EA02050DB1012000E0002030BD000032
:101DF00010640240006002407D0F7D0F10B500228C
:101E00000268134B1A40CC680B6823434C69234388
:101E10008C692343CC6923430C6A23434C6A2343D4
:101E20008C6A23434C6B23438C6B23431A4302601D
:101E3000426922F00702D1E90B3423431A4342617D
:101E40000B6943604B6883608B68C36010BD000002
:101E50003F801CF04160704710B5044621460020C9
:101E6000FFF74EF910BD704730B10749096841F4DA
:101E70008061054A116005E00349096821F4806129
:101E8000014A116070470000003C024070B50446F2
:101E90000A460026092502B909E0012A01D11602E5
:101EA00005E0022A01D1160201E04FF4407600F06D
:101EB000C5F80546092D28D11548006820F4407062
:101EC0001349086008460068304308600846006807
:101ED00020F0F80008600846006844F0020108435A
:101EE0000B4908600846006840F48030086000F044
:101EF000A5F805460648006820F00200044908607D
:101F00000846006820F0F8000860284670BD000010
:101F1000103C024009201349096801F48031B1F5F1
:101F2000803F01D101201CE00E49096801F0100139
:101F300009B1062015E00B49096801F4807109B167
:101F400002200EE00749096801F0E00109B107200D
:101F500007E00449096801F0020109B1082000E026
:101F6000092070470C3C02400348006840F00040E4
:101F70000149086070470000103C024030B502463D
:101F80000C46092500F05AF80546092D17D10D48D1
:101F9000006820F440700B4908600846006808603B
:101FA0000846006840F001000860147000F046F830
:101FB00005460448006820F00100024908602846F0
:101FC00030BD0000103C024030B502460C460925E9
:101FD00000F034F80546092D19D10E48006820F4A8
:101FE00040700C4908600846006840F400700860C2
:101FF0000846006840F001000860146000F01EF818
:1020000005460448006820F001000249086028469F
:1020100030BD0000103C02400548006800F0004060
:1020200028B1044802490C39086003480860704729
:10203000103C024023016745AB89EFCD08B509206C
:102040000090FFF767FF009002E0FFF763FF00904A
:102050009DF800000128F8D09DF8000008BD0000A0
:1020600038B54FF480413F4800F0FEF920213E484A
:1020700000F0FAF940213C4800F0F4F9012000900A
:102080003A4803882122A821394800F06BFC02203D
:1020900013F0F8F801200090364803882522A82183
:1020A000334800F05FFC012013F0ECF811F09CFCC9
:1020B0004EF21002811A904211D009DCA0F61630BF
:1020C000002820D0A0F53C40FC38002820D115E0A5
:1020D00002290ED0A1F60171002919D104E026A031
:1020E00012F046FC012418E02EA012F041FC01245D
:1020F00013E037A012F03CFC01240EE03FA012F0E8
:1021000037FC012409E048A012F032FC012404E06D
:1021100050A012F02DFC002400BF00BF0120009051
:10212000144803882422A821114800F01BFC4FF416
:1021300080410C4800F096F920210B4800F092F9FC
:102140004021094800F090F90120009007480388D9
:102150002022A821064800F005FC322013F092F856
:10216000204638BD00040240001002402400002038
:102170000054004026000020466C6173682069739B
:102180002042593235513130412C6D656D6572797F
:102190002073697A65206973203132384B422E0DE5
:1021A0000A000000466C617368206973205732355D
:1021B00051323045572C6D656D6572792073697A9F
:1021C00065206973203235364B422E0D0A0000001F
:1021D000466C61736820697320425932355134303E
:1021E000412C6D656D6572792073697A652069731C
:1021F00020313032344B422E0D0A0000466C6173A0
:10220000682069732047443235513430432C6D6562
:102210006D6572792073697A652069732031303277
:10222000344B422E0D0A0000466C617368206973BE
:1022300020585432355136344244534947542C6D5A
:10224000656D6572792073697A6520697320384DF0
:102250002E0D0A004E6F20466C617368210D0A0036
:102260001CB5012102200AF09DF9012110200AF07D
:1022700099F94FF48040009001208DF8040000206F
:102280008DF8060003208DF8050001208DF8070069
:102290006946374800F072F80120009069463548D9
:1022A00000F06CF8042000906946324800F066F8AF
:1022B0000820009069462F4800F060F81020009038
:1022C00069462C4800F05AF81020009069462A48C8
:1022D00000F054F8202000906946264800F04EF89F
:1022E000402000906946234800F048F80121214829
:1022F00000F0BAF804211F4800F0B4F808211D4886
:1023000000F0B0F810211B4800F0AEF810211A4878
:1023100000F0AAF82021174800F0A4F82021154861
:1023200000F0A0F84FF48041114800F09BF88020A5
:10233000009000208DF8040003208DF80500022095
:102340008DF8070069460B4800F018F8402000900F
:1023500001208DF804008DF8060003208DF805009B
:1023600000208DF807006946014800F007F81CBD01
:10237000000402400010024000080240F0B50A4686
:1023800000210023002400BF3DE0012505FA01F3F0
:10239000156805EA03049C4234D105684F00032602
:1023A000BE40B543056015794E00B540066835431B
:1023B00005601579012D02D01579022D16D1856899
:1023C0004F000326BE40B543856055794E00B540A9
:1023D000866835438560456801268E40B543456073
:1023E000456896798E40B6B235434560C5684F0062
:1023F0000326BE40B543C560D5794E00B540C668DA
:102400003543C560491C1029BFD3F0BDF0B500238A
:1024100000244D07ED0E02FA05F3CE1000F1200561
:1024200055F826504E07F70E0F26BE40B543CF1085
:1024300000F1200646F82750CE1000F1200555F88F
:10244000265045EA0304CE1000F1200545F8264049
:10245000F0BD0246002013690B400BB1012000E0E3
:1024600000207047418370470183704742694A40AA
:102470004261704770B50A480468001D0568001D78
:102480000668344454B108220649204600F060FB37
:10249000042204491031284600F05AFB70BD0000A8
:1024A000107AFF1FFA02002008B54FF4804110484F
:1024B000FFF7DAFF20210F48FFF7D6FF40210D4834
:1024C000FFF7D0FF012000900B4803882122A821AC
:1024D0000A4800F047FA01200090094803882522A5
:1024E000A821064800F03EFA3C2012F0CBFE08BDC1
:1024F000000402400010024024000020005400406C
:102500002600002000BFFEE700B587B001210220B1
:102510000AF048F8012148050AF054F8042209217C
:102520002248FFF773FF042208212048FFF76EFFBF
:102530004FF40070019002208DF8080001208DF802
:102540000A0002208DF8090000208DF80B0001A977
:102550001648FFF713FF4FF48070019001A913484C
:10256000FFF70CFF124800F055F80020ADF81000FE
:102570004BF6FF70ADF812003020ADF814004FF4A8
:102580008060ADF816000001ADF81800094803900E
:102590000121074800F031F803A9054800F0A0F830
:1025A0000121034800F008F807B000BD0004024014
:1025B00000540040A086010021B1028842F48062EC
:1025C000028004E002884FF6FF331A400280704711
:1025D00070B502460024002500230020958A138B45
:1025E0001B0445EA030626F07F4404EA01068E42F6
:1025F00001D1012000E0002070BD21B1028842F02D
:102600000102028004E002884FF6FE731A40028045
:102610007047000010B504461348844209D10121D7
:10262000480509F0DFFF00214FF4001009F0DAFF40
:1026300018E00E48844209D10121880509F0D2FF33
:1026400000214FF4800009F0CDFF0BE008488442E0
:1026500008D10121C80509F0C5FF00214FF4000091
:1026600009F0C0FF10BD00000054004000580040B9
:10267000005C004021B1028842F48072028004E0D4
:1026800002884FF6FF631A400280704721B102882A
:1026900042F40072028004E002884FF6FF531A40B1
:1026A000028070470CB5024600200023019300937E
:1026B00000920B0F019321F07F41019B1BB1009B06
:1026C0001433009303E0090C009B18330093009B24
:1026D0001B680B400BB1012000E000200CBD000086
:1026E0002DE9FF4704460D460026B1460427DFF8D2
:1026F000CC80A6884FF6C0700640684609F0A2FF5D
:10270000DDF808802E48B8FBF0F01FFA80F946EAA1
:102710000906A68020884FF6FE710840208000261A
:102720002849286888420CD828684000B8FBF0F097
:1027300087B2042F00DA04273E4309F10100208408
:1027400027E0E8884BF6FF71884206D1286800EB45
:102750004000B8FBF0F087B209E0286800EBC00148
:1027600001EB0010B8FBF0F087B247F48047C7F3E5
:102770000B0008B947F0010747F4004006434FF447
:10278000967009FB00F04FF47A7190FBF1F0401C59
:102790002084A683208840F00100208026884FF600
:1027A000F5300640A8886989084306432680A88931
:1027B000298908432081BDE8FF87000000127A00C4
:1027C00040420F00A08601002DE9F04707468846E9
:1027D00016464FF0000900BF4FF47A7400BF601E28
:1027E00080B2040006D04FF400313846FFF75AFF9C
:1027F0000028F4D10CB94FF0010901213846FFF748
:1028000039FF4FF47A7400BF601E80B2040005D017
:102810004B493846FFF7DCFE0028F5D00CB94FF0E5
:10282000010900224146384600F092F84FF47A74CC
:1028300000BF601E80B2040005D042493846FFF751
:10284000C7FE0028F5D00CB94FF0010931463846D3
:1028500000F086F84FF47A7400BF601E80B2040066
:1028600006D03849891C3846FFF7B2FE0028F4D05C
:102870000CB94FF0010901213846FFF7FBFE4FF478
:102880007A7400BF601E80B2040005D02C4938461F
:10289000FFF79EFE0028F5D00CB94FF00109012288
:1028A0004146384600F054F84FF47A7400BF601E79
:1028B00080B2040006D02249491C3846FFF788FE42
:1028C0000028F4D00CB94FF001094FF47A7400BF1E
:1028D000601E80B2040006D019493F313846FFF728
:1028E00077FE0028F4D00CB94FF00109384600F00B
:1028F0002BF8054600213846FFF75EFE01213846D9
:10290000FFF7C4FE4FF47A7400BF601E80B204006B
:1029100006D00B493F313846FFF75AFE0028F4D065
:102920000CB94FF00109384600F00EF840EA0520D6
:1029300005B201213846FFF73FFE2846BDE8F08783
:1029400001000300820007000146088AC0B27047F8
:1029500012B141F0010101E001F0FE010182704776
:10296000018270472DE9F0470746884616461D4606
:10297000DDF820904FF0000A4FF47A7400BF4FF456
:1029800000313846FFF78EFE0028F8D100BF601EE8
:10299000040006D04FF400313846FFF783FE0028CC
:1029A000F5D10CB94FF0010A01213846FFF762FE5C
:1029B0004FF47A7400BF601E040005D047493846C2
:1029C000FFF706FE0028F6D00CB94FF0010A0022EE
:1029D00041463846FFF7BCFF4FF47A7400BF601ED3
:1029E000040005D03E493846FFF7F2FD0028F6D036
:1029F0000CB94FF0010A31463846FFF7B1FF4FF4EA
:102A00007A7400BF601E040006D03549891C384620
:102A1000FFF7DEFD0028F5D00CB94FF0010AB9F13F
:102A2000010F09D0B9F1020F1BD0B9F1030F42D049
:102A3000B9F1040F41D13FE0E9B23846FFF790FF0A
:102A40004FF47A7400BF601E040006D02449891C2C
:102A50003846FFF7BDFD0028F5D00CB94FF0010A4C
:102A60002CE0C5F307213846FFF77AFF4FF47A745C
:102A700000BF601E040006D01949891C3846FFF7C4
:102A8000A7FD0028F5D00CB94FF0010AE9B238468D
:102A9000FFF766FF4FF47A7400BF601E040006D093
:102AA0000F49891C3846FFF793FD0028F5D00CB973
:102AB0004FF0010A02E001E000E000BF00BF012189
:102AC0003846FFF7E3FDBAF1010F04D14FF480411E
:102AD0000448FFF7C9FCBDE8F087000001000300CF
:102AE00082000700001002404CF6CC40014908600B
:102AF000704700000030004070B505460C4645F2B6
:102B0000555000F01FF8284600F010F8204600F05D
:102B100013F800F003F8FFF7E7FF70BD4AF6AA20AC
:102B200001490860704700000030004001494860DA
:102B30007047000000300040014988607047000085
:102B4000003000400149086070470000003000403C
:102B500030B50B46002100BF16E00A24B4EB107F0D
:102B600005D9302404EB107403F8114005E041242A
:102B700004EB10740A3C03F81140000100254C00DE
:102B8000641C1D554C1CE1B29142E6DB30BD0000D7
:102B90001CB50121102009F005FD4FF440600090A4
:102BA00000208DF8040003208DF8050001208DF829
:102BB000070069460148FFF7E1FB1CBD0010024019
:102BC00010B5044614B1012023490870224800784A
:102BD00078B34FF400612148FFF73BFC28B14FF474
:102BE00080611E48FFF735FC18BB0A2012F04AFB33
:102BF0000020194908704FF400611848FFF729FCBC
:102C000038B94FF480611548FFF723FC08B9032059
:102C100010BD4FF400611148FFF71BFC08B90120FB
:102C2000F6E74FF480610D48FFF713FC88B90220E6
:102C3000EEE7FFE74FF400610848FFF70AFC0128C0
:102C400007D181020548FFF704FC012801D10249A0
:102C500008700020DCE7000068010020001002403E
:102C600010B50020FFF7ACFF0446F4B1012C04D0EE
:102C7000022C0DD0032C17D115E04FF480510B48D6
:102C8000FFF7F4FB4FF400510848FFF7EFFB0BE0B0
:102C90004FF480410548FFF7E9FB4FF4004103483A
:102CA000FFF7E4FB00E000BF00BF10BD00100240D2
:102CB00070B504460020FFF783FF0546F020207022
:102CC00000206070FF20E0702071022D02D10020F2
:102CD000A07001E00120A0704021204610F092FB7E
:102CE00070BD00001CB50121102009F05BFC4FF401
:102CF0007040009001208DF8040000208DF806003F
:102D000003208DF8050001208DF80700694607486B
:102D1000FFF734FB4FF440510448FFF7A5FB4FF495
:102D200040410248FFF79EFB1CBD0000001002401E
:102D30007CB504464FF480622A492B480BF0D0F949
:102D4000E078A17840EA012501A9284610F02AFC84
:102D5000002841D0E07823490874A0784874BDF871
:102D600004008874BDF804000012C87460792179E9
:102D700040EA01201D490880012000900846038890
:102D80002122A8211A48FFF7EDFD012012F07AFA5E
:102D900060791449087520794875E079A17940EA8D
:102DA000012014490880012000900846038825224C
:102DB000A8210F48FFF7D6FD012012F063FAE07951
:102DC00008490876A07948764FF4806206480BF0EF
:102DD000ADF90BF073FB03E00121204610F05EFD1E
:102DE0007CBD00003C09002000C000082400002039
:102DF00000540040260000201CB50121084609F0BF
:102E0000D1FB0121022009F0CDFB0121042009F0B2
:102E1000C9FB0121102009F0C5FBC520009001204D
:102E20008DF8040000208DF806008DF805008DF85F
:102E3000070069463748FFF7A1FA082000900120F3
:102E40008DF8040000208DF806008DF805008DF83F
:102E5000070069463048FFF791FA42F232000090CD
:102E600001208DF8040000208DF806008DF8050083
:102E70008DF8070069462948FFF780FA4FF4F8708B
:102E8000009001208DF8040000208DF806008DF8D8
:102E900005008DF8070069462148FFF76FFA012108
:102EA0001C48FFF7E1FA04211A48FFF7DDFA402138
:102EB0001848FFF7D9FA80211648FFF7D5FA0821FC
:102EC0001548FFF7D1FA02211448FFF7CDFA102177
:102ED0001248FFF7C9FA20211048FFF7C5FA4FF44E
:102EE00000510E48FFF7C0FA10210D48FFF7BCFA59
:102EF00020210B48FFF7B8FA40210948FFF7B4FA40
:102F000080210748FFF7B0FA4FF480710448FFF7BB
:102F1000ABFA1CBD00000240000402400008024061
:102F2000001002402DE9F04190B080460C46154655
:102F30001E46169F0121880509F034FB4046FEF726
:102F400085FE2248FEF782FE00BF4046FEF72AFFBC
:102F50000028FAD100BF1D48FEF724FF0028FAD14F
:102F60000194029503960490059706904FF48060B3
:102F700007900020089009900A904FF480300B9041
:102F800000200C9003200D9000200E900F9001A9BE
:102F90004046FEF733FF019402950D480390402010
:102FA00004900597002006900790089009900A90D9
:102FB0000B900C9003200D9000200E900F9001A913
:102FC0000248FEF71BFF10B0BDE8F08158640240D4
:102FD0006800002070B504460D46164601221146D1
:102FE00016480AF045FF00212046FEF723FE00BFE9
:102FF0002046FEF7D7FE0028FAD129462046FEF7E4
:1030000029FF01212046FEF715FE012202210B486F
:103010000AF02EFF00210A48FEF70CFE00BF084808
:10302000FEF7C0FE0028FAD129460548FEF712FF38
:1030300001210348FEF7FEFD70BD00000030014095
:10304000586402402DE9F04704460E4617464FF0FB
:1030500009080025A946B4F1006F02D304F003006B
:1030600008B1BDE8F087FEF7D7FF0020FEF7FCFEB1
:10307000254604EB07091848854215D211E0284679
:103080000BF041F8401C58B128460AF0D9FF82469F
:103090000221FEF7FBFE8046B8F1090F01D002E0E5
:1030A0002D1D4D45EBD300BFB8F1090F0CD108E041
:1030B00031782046FEF762FF092800D003E0641C47
:1030C000761C4C45F4D300BF0120FEF7CDFEFEF781
:1030D0004BFF00BFC5E700000000FF1F00BFFEE779
:1030E0003EB50446F020207000206070A07801906A
:1030F00001AA0121F32012F017FA142012F0C2F8ED
:1031000001204FF47A7300221146009002A812F0B9
:1031100043FA08B901206070FF20A07040212046CA
:1031200010F070F93EBD3EB50446F020207000203E
:103130006070A078029002AA0121F22012F0F4F946
:10314000282012F09FF801204FF4FA730022114654
:10315000009001A812F020FA18B901206070A07840
:103160002071FF20A070E0704021204610F04AF945
:103170003EBD704770B5002100230F22C4781CB3F8
:10318000174C246804F4E064C4F5E064C4F3072138
:10319000C1F10404E3B20A4144789C40E1B284786E
:1031A000144021430C07210E0E4C0578615504781C
:1031B00004F01F050124AC4005786D11AD0005F148
:1031C000E025C5F8004109E0047804F01F0501245A
:1031D000AC40054D0678761145F8264070BD0000DC
:1031E0000CED00E000E400E080E100E00249014372
:1031F000024A1160704700000000FA050CED00E083
:1032000000BF00BF00BFBFF34F8F00BF00BF00BFB4
:103210000948006800F4E06008490843001D0649B9
:10322000086000BF00BF00BFBFF34F8F00BF00BFEB
:1032300000BF00BF00BFFDE70CED00E00000FA0595
:1032400070B5044604228A210E48FFF7BDFA042215
:103250008A210C48FFF7B8FA00EB80004500F02007
:10326000207000206070A570280AE070280C207182
:10327000280E6071FF20A071E0714021204610F0FF
:10328000C1F870BD0054004010B502480EF052FC69
:1032900010BD00004803002010B502480EF0B6FC37
:1032A00010BD00004803002010B502480EF0EEFCEF
:1032B00010BD00004803002010B50120034908702C
:1032C000C1030348FFF7D0F810BD00002000002024
:1032D000001002407047000038B504464FF48041AA
:1032E0003448FFF7C1F801201F232122A8210090B4
:1032F0003148FFF737FB782011F0C4FF4FF48062AC
:103300002E492F480AF0ECFEFDF78CFE05462946B3
:103310002CA011F02DFBFDF78FFE00EB8005294658
:1033200028A011F025FBA07801280CD123481C30DF
:1033300010F0A4F82148283010F092F901202071F3
:103340000020607117E01D48807F01280CD01B48C9
:103350001C3010F093F81948283010F081F9002043
:1033600020710120607106E01448807F012802D19D
:1033700016A011F0FDFA2079012802D06079012809
:1033800008D101200D49887781F82A0082020C4873
:103390000AF0CCFE0BF092F84FF480410548FFF79D
:1033A00061F801201F232022A82100900248FFF786
:1033B000D9FA38BD00040240005400403C09002006
:1033C00000C0000825640D0A000000005573652048
:1033D0006F6C642043616C6962726174696F6E2006
:1033E000646174612E0D0A0001B58CB0FE4800784E
:1033F000012860D1FD480168FD48FDF7CFFD002898
:1034000009F0A4800022F9480168491CF948FDF739
:10341000BFFAF9490968884233D14FF48051F7481F
:10342000FFF720F80122F149F5480AF07FFE01225A
:10343000F149F348001D0AF079FE4FF48041EF484E
:10344000FFF712F84FF4FA72E949ED48001F0AF04D
:103450005DFE0120E64908704FF4FA72E848001F4B
:103460000AF064FE0BF02AF80020DF49087000BF64
:10347000E44800780028FBD00020E2490870FFF7FC
:10348000BFFE4FF40041DD48FEF7EEFF0022D748B3
:103490000168491CD748FDF77BFA02460390D648DD
:1034A0000168D9A011F064FA0020CF4908700AF031
:1034B000A9FF09F04BB8DB480078012850D1CB4870
:1034C0000168CB48FDF76AFD0028F2D00022C7480A
:1034D0000168491CC748FDF75BFAC749096888427B
:1034E00025D1C2480268521CC24948020AF01EFE99
:1034F0004FF48051C148FEF7B5FFBC480168491C34
:10350000BC480AF07DFE4FF48041BC48FEF7ACFF9A
:103510000AF0D4FF0020C349087000BFB948007802
:103520000028FBD00020B7490870FFF769FE4FF470
:103530000041B248FEF798FF0022AC480168491CE0
:10354000AC48FDF725FA02460390AB480168B6A0E7
:1035500011F00EFA0020B34908700AF053FFA8E7F3
:10356000B4480078012835D1A0480168A048FDF78B
:1035700015FD00289DD000229C480168491C9D48EB
:10358000FDF706FA9C49096888420AD14FF4804148
:103590009A48FEF769FF0AF091FF0020A5490870DC
:1035A00087E74FF400419548FEF75EFF00228F4801
:1035B0000168491C8F48FDF7EBF9024603908E48DD
:1035C000016899A011F0D4F900219A4801700AF01D
:1035D00019FF6EE79848007801287CD1834801687C
:1035E0008348FDF7DBFC0028B9D000227F48016842
:1035F000491C8048FDF7CCF97F490968884253D1BE
:103600004FF480418D48FEF72FFF20217B48FEF7C5
:103610002BFF40217948FEF725FF012000908848C4
:1036200003882122A8218748FFF79CF901200090F8
:10363000854803882522A8218248FFF793F90220B4
:1036400011F020FE69480268521C4FF4804169481D
:1036500010F02EFA012000907B4803882422A82134
:103660007848FFF77FF94FF480417448FEF7FAFE7F
:1036700020216248FEF7F6FE40216048FEF7F4FE86
:10368000012000906E4803882022A8216D48FFF792
:1036900069F94FF480415948FEF7E6FE002166487B
:1036A00001700AF00BFF04E74FF400415348FEF7A6
:1036B000DBFE00224D480168491C4E48FDF768F9C1
:1036C000024603904C48016857A011F051F90020C0
:1036D0005949087000E002E00AF094FEE9E65B4810
:1036E000007801287CD15A480078401C584908705D
:1036F00000200A900EE057490A980A5C411D544880
:103700000078401E01EB402039490A540A98401CB9
:1037100080B20A900A98B0F5007FECDB4C48007844
:1037200008285ED109F022FF50BB002108460AF0AC
:1037300083FE00204549087001200090424803881C
:103740002422A8213F48FFF70DF94FF480413B4860
:10375000FEF788FE20212948FEF784FE40212748F5
:10376000FEF782FE01200090354803882022A82120
:103770003448FFF7F7F8322011F084FD0DB000BD9A
:1037800001213548FEF76EFE00200A9009E0184935
:103790000A98085C03900AF053FA0A98401C80B219
:1037A0000A9041F207010A988842F0DB01212A4879
:1037B000FEF75AFE0E4880780F287CD109F0D6FE1D
:1037C00080B9002108460AF037FE00201F49087022
:1037D000012000901C4803882422A82119483DE0BC
:1037E00089E085E056E000000D000020A8010020DF
:1037F0003C09002000000408A40100200010024041
:1038000004C00008C40100200D0A436F64652064F1
:10381000617461206572726F723A202578202025CC
:10382000780D0A000C0000200D0A2578202025784C
:103830000D0A00000E0000200F00002000040240CE
:1038400024000020005400402600002094010020A5
:103850009C0100203C7D002000000240FFF782F820
:103860004FF48041FE48FEF7FDFD2021FD48FEF7A4
:10387000F9FD4021FB48FEF7F7FD01200090FA48D2
:1038800003882022A821F948FFF76CF8322011F0B4
:10389000F9FC73E7F6488078022823D101200090D4
:1038A000F44803882422A821F048FFF75BF84FF47E
:1038B0008041EB4800E015E0FEF7D4FD2021E94807
:1038C000FEF7D0FD4021E748FEF7CEFD0120009035
:1038D000E54803882022A821E448FFF743F8322076
:1038E00011F0D0FC0020E44908700021E348017089
:1038F0000AF0E4FDDDE5E2480078012873D1DE48F6
:103900000078401CC1B2DC48017000200A900EE033
:10391000D7490A980A5CD8480078401E0A9901EBFA
:103920004020D8490A540A98401C80B20A900A984C
:10393000B0F5007FECDBD048007808284FD1D248A2
:10394000007801280CD10203D0480168CD4810F05E
:10395000AFF8CE48006800F58050CC4908600FE011
:10396000C948007802280BD1C202C9480168C5487D
:1039700010F09EF8C648006800F58050C449086001
:10398000C4480078012806D10020C04908604FF4DF
:10399000C010BF49086001200090B6480388242267
:1039A000A821B248FEF7DEFF4FF48041AC48FEF795
:1039B00059FD2021AB48FEF755FD4021A948FEF7EF
:1039C00053FD01200090A84803882022A821A74881
:1039D000FEF7C8FF0020A8490870A94908700AF03E
:1039E0006DFD66E5FFE7AC48007801287DD1A2486F
:1039F0000078401CA049087000200A900EE09C4905
:103A00000A980A5C411D9C480078401E01EB40204A
:103A10009C490A540A98401C80B20A900A98B0F552
:103A2000007FECDB94480078082879D109F09EFDEE
:103A300048BB002108460AF0FFFC002096490870A8
:103A4000012000908B4803882422A8218748FEF794
:103A500089FF4FF480418248FEF704FD2021814810
:103A6000FEF700FD40217F48FEF7FEFC012000909C
:103A70007D4803882022A8217C48FEF773FF32206E
:103A800011F000FC7AE601218448FEF7EBFC0020EF
:103A90000A9009E07B490A98085C03900AF0D0F884
:103AA0000A98401C80B20A9041F207010A988842A5
:103AB000F0DB01217948FEF7D7FC724880780F28A7
:103AC00056D109F053FD60BB002108460AF0B4FC52
:103AD0000020714908700120009066480388242264
:103AE000A8216248FEF73EFF00E04AE04FF4804123
:103AF0005B48FEF7B7FC20215A48FEF7B3FC402193
:103B00005848FEF7B1FC0120009057480388202256
:103B1000A8215648FEF726FF322011F0B3FB2DE610
:103B20002CE0FFE752488078022821D10120009044
:103B3000504803882422A8214C48FEF713FF4FF475
:103B400080414748FEF78EFC20214648FEF78AFC5C
:103B500040214448FEF788FC012000904248038839
:103B60002022A8214148FEF7FDFE322011F08AFBF9
:103B70000021414801700020474908700AF09EFC6E
:103B800097E447480078012868D13B480078401CFA
:103B90003949087000200A9010E035490A980A5CFB
:103BA000411D35480078401E01EB402035490A543C
:103BB000FEF7B4FF0A98401C80B20A900A98B0F54C
:103BC000007FEADB2C480078082848D109F0CEFCB9
:103BD00048BB002108460AF02FFC01200090254830
:103BE00003882422A8212148FEF7BCFE4FF480411F
:103BF0001B48FEF737FC20211A48FEF733FC402112
:103C00001848FEF731FC0120009017480388202255
:103C1000A8211648FEF7A6FE002021490870322090
:103C200011F030FBAAE501211C48FEF71BFC002027
:103C30000A9009E013490A98085C03900AF000F81A
:103C40000A98401C80B20A9041F207010A98884203
:103C5000F0DB01211148FEF707FC23E07DE079E06D
:103C600000040240001002402400002000540040E4
:103C70003C7D0020260000209C01002094010020B3
:103C8000980100203C090020780100207C010020E0
:103C900080010020790100209501002000000240F1
:103CA00099010020F74880780F284ED109F05EFC7A
:103CB00048BB002108460AF0BFFB0020F24908700B
:103CC00001200090F14803882422A821F048FEF743
:103CD00049FE4FF48041EF48FEF7C4FB2021EE4837
:103CE000FEF7C0FB4021EC48FEF7BEFB0120009030
:103CF000EA4803882022A821E548FEF733FE322057
:103D000011F0C0FA3AE501200090E048038824222F
:103D1000A821DF48FEF726FE4FF48041DD48FEF77C
:103D2000A1FB2021DC48FEF79DFB4021DA48FEF78D
:103D30009BFB01200090D94803882022A821D44869
:103D4000FEF710FE322011F09DFA0020D4490870D1
:103D5000CD4908700AF0B2FB22E4D248007801286D
:103D60007DD1CF480078401CCD49087000200A90D2
:103D700010E0CD490A980A5C411DC9480078401EF0
:103D800001EB4020BF490A54FEF7C8FE0A98401CC8
:103D900080B20A900A98B0F5007FEADBC04800784C
:103DA000082879D109F0E2FB48BB002108460AF057
:103DB00043FB01200090B54803882422A821B44881
:103DC000FEF7D0FD4FF48041B248FEF74BFB2021B7
:103DD000B148FEF747FB4021AF48FEF745FB012005
:103DE0000090AE4803882022A821A948FEF7BAFD1A
:103DF0000020AC490870322011F044FABEE40121E1
:103E0000AA48FEF72FFB00200A9009E09D490A9876
:103E1000085C039009F014FF0A98401C80B20A90D5
:103E200041F207010A988842F0DB01219F48FEF722
:103E30001BFB944880780F2852D109F097FB60BB98
:103E4000002108460AF0F8FA00209649087001207F
:103E500000908E4803882422A8218D4800E029E1A3
:103E6000FEF780FD4FF480418A48FEF7FBFA2021DF
:103E70008948FEF7F7FA40218748FEF7F5FA012056
:103E80000090864803882022A8218148FEF76AFD19
:103E9000322011F0F7F971E428E0FFE701200090EB
:103EA0007A4803882422A8217948FEF75BFD4FF465
:103EB00080417848FEF7D6FA20217748FEF7D2FAFB
:103EC00040217548FEF7D0FA01200090734803881E
:103ED0002022A8216E48FEF745FD322011F0D2F9CC
:103EE00000206F4908706F490870C7E0704800787B
:103EF0000128FAD16A480078401C694908700020FE
:103F00000A9010E068490A980A5C411D64480078EC
:103F1000401E01EB40205B490A54FEF7FFFD0A9862
:103F2000401C80B20A900A98B0F5007FEADB5C483A
:103F30000078082877D109F019FB48BB0021084612
:103F40000AF07AFA01200090504803882422A82120
:103F50004F48FEF707FD4FF480414E48FEF782FAC6
:103F600020214D48FEF77EFA40214B48FEF77CFAAF
:103F700001200090494803882022A8214448FEF7E8
:103F8000F1FC00204A490870322011F07BF980E4EE
:103F900001214648FEF766FA00200A9009E03949F7
:103FA0000A98085C039009F04BFE0A98401C80B206
:103FB0000A9041F207010A988842F0DB01213B4850
:103FC000FEF752FA2F4880780F2850D109F0CEFA28
:103FD00050BB002108460AF02FFA0020344908702F
:103FE00001200090294803882422A8212848FEF7B0
:103FF000B9FC4FF480412748FEF734FA20212648C7
:10400000FEF730FA40212448FEF72EFA01200090F6
:10401000224803882022A8211D48FEF7A3FC322055
:1040200011F030F935E427E0FFE701200090174850
:1040300003882422A8211648FEF794FC4FF48041FF
:104040001448FEF70FFA20211348FEF70BFA40211F
:104050001148FEF709FA0120009010480388202239
:10406000A8210B48FEF77EFC322011F00BF900204E
:104070000B4908700E4908700AF020FA0AF01EFA7F
:1040800038E400003C0900209901002026000020AF
:1040900000540040000402400010024024000020B0
:1040A0009C010020960100203C7D00200000024081
:1040B00097010020FE48007801287DD1FD48007856
:1040C000401CFC49087000200A900EE0FA490A984A
:1040D0000A5C411DF7480078401E01EB4020F7497B
:1040E0000A540A98401C80B20A900A98B0F5007FE2
:1040F000ECDBF0480078082879D109F037FA48BBA2
:10410000002108460AF098F901200090EC48038845
:104110002422A821EB48FEF725FC4FF48041EA4811
:10412000FEF7A0F92021E948FEF79CF94021E74875
:10413000FEF79AF901200090E54803882022A82183
:10414000E048FEF70FFC0020D9490870322011F03A
:1041500099F897E40121DF48FEF784F900200A90DE
:1041600009E0D6490A98085C039009F069FD0A98AD
:10417000401C80B20A9041F207010A988842F0DBA5
:104180000121D448FEF770F9CC4880780F2856D129
:1041900009F0ECF960BB002108460AF04DF9002057
:1041A000C349087001200090C54803882422A82133
:1041B000C448FEF7D7FB00E049E04FF48041C24815
:1041C000FEF750F92021C148FEF74CF94021BF48C5
:1041D000FEF74AF901200090BD4803882022A8215B
:1041E000B848FEF7BFFB322011F04CF84AE42BE050
:1041F000FFE7B1488078022821D101200090B04823
:1042000003882422A821AF48FEF7ACFB4FF480417D
:10421000AD48FEF727F92021AC48FEF723F94021ED
:10422000AA48FEF721F901200090A948038820221E
:10423000A821A448FEF796FB322011F023F80020B5
:104240009C4908709A4908700AF038F998E4A24825
:10425000007801287DD1A1480078401CC1B29F4858
:10426000017000200A900EE093490A980A5C411DF3
:104270009A480078401E01EB402090490A540A9861
:10428000401C80B20A900A98B0F5007FECDB93489E
:10429000007808287ED109F069F988BBFEF73EFC5A
:1042A0004FF4FA6010F0EEFFFEF738FC00210846EC
:1042B0000AF0C2F801200090814803882422A82136
:1042C0008048FEF74FFB4FF480417F48FEF7CAF865
:1042D00020217E48FEF7C6F840217C48FEF7C4F84E
:1042E000012000907A4803882022A8217548FEF713
:1042F00039FB002078490870642010F0C3FF0EE4F9
:10430000FFE701217348FEF7ADF800200A9009E0AD
:104310006A490A98085C039009F092FC0A98401CCC
:1043200080B20A9041F207010A988842F0DB01212D
:104330006848FEF799F8614880780F287FD109F026
:1043400015F940BBFEF7EAFB4FF4FA6010F09AFF54
:1043500000E07DE0FEF7E2FB002108460AF06CF881
:1043600000205E4908705C490870012000905448A4
:1043700003882422A8215348FEF7F4FA4FF4804121
:104380005148FEF76FF820215048FEF76BF84021A6
:104390004E4801E059E00EE0FEF766F8012000907B
:1043A0004B4803882022A8214648FEF7DBFA642008
:1043B00010F068FF36E4052010F064FF09F0D6F82D
:1043C000A0BBFEF7ABFB4FF4FA6010F05BFFFEF70B
:1043D000A5FB002108460AF02FF800203F4908708D
:1043E0003D49087001200090354803882422A82107
:1043F0003448FEF7B7FA4FF480413348FEF732F8FD
:1044000020213248FEF72EF840213048FEF72CF8E4
:10441000012000902E4803882022A8212948FEF779
:10442000A1FA642010F02EFF6CE408E0FFE7FEF72D
:1044300075FB40F6B83010F025FFFEF76FFB00204B
:10444000264908700021244801700AF037F883E4F7
:104450002348007800280CDD21480078401CC1B2B8
:104460001F48017000780328F1D100211C48017019
:1044700072E41C4800780028E9D11B480078002825
:10448000E5D11A4800780028E1D1194800780028C1
:10449000DDD1074800780028D9D10F4800780028DE
:1044A000D5D10F4800780028D1D11248007823E0F8
:1044B000930100209C0100203C7D00203C0900204D
:1044C000260000200054004000040240001002407A
:1044D00024000020000002409B0100209D010020DC
:1044E000920100200C0000200D0000200E00002092
:1044F0000F000020940100200028A8D1FC4800787B
:104500000028A4D1FB4800780028A0D1FA48007800
:1045100000289CD1F9480078002898D10C9801888F
:1045200045F23C52881A914202F0188652DC45F25C
:104530000B52A1EB0200914207F0878547DC45F260
:104540001642A1EB0200914207F0EA861CDCA1F5BD
:10455000A840162887F0C587DFE810F0533E593E83
:104560005C3E5F3E623E633E663E693E6E3EC33FDA
:10457000C33FC33FC33FC33FC33FC33F713E773ECB
:104580007A3E7D3E803E813EEE2871D014DCEA28E2
:104590006FD00ADC022807F0F786132801F0948612
:1045A000B82847F09E8706F016B9EB287AD0EC2899
:1045B00079D0ED28F5D1DAE1EF380628CAD2DFE864
:1045C00010F07402A302BA0241039203413D312864
:1045D000C0D200E032E0DFE810F0843F463D7D3D90
:1045E000C13D133E483B7A048C098F099D09C309DC
:1045F000DD09F709583B450A843F383B3B15353EFA
:10460000843F173E843F9A03843F843F843F843F26
:10461000843F531498197A26843F283B9F08843F8F
:104620007E36843F843F843F843F843F843F843F81
:10463000843FD21302186B27843F183B922806F060
:104640002E815FDC6D2804F03C8534DC4F2807F0B8
:10465000BC8219DC1F2807F0C8820BDC022806F098
:10466000A987152807F0688316289AD107F041BC5E
:10467000C7E1B8E02F2807F088823F2807F095822D
:1046800042288ED106F025B86A2802F0BD810BDCE5
:10469000522805F0B687622805F02786692889D157
:1046A00002F0FBB8AEE017E16B2802F068846C28DA
:1046B000DBD103F0D9BA7B2802F059820DDCA0F1DE
:1046C0006E00082884D2DFE810F0E427EA28A32A45
:1046D000862BED38F03A0C3FD62C8B2802F0E08187
:1046E00009DC7C2802F0CC857D2804F0E982822850
:1046F000BBD105F0CBBC8C2803F0C1878D28B4D189
:1047000004F0E7B949F2C762811A904207F0AA8023
:1047100039DCBD2804F0E48317DCB22806F0F2830C
:1047200009DCAB2802F0AA81AC2803F0FB85AD2898
:104730009BD104F039B9B52806F0FF81BB2802F0FF
:104740007D82BC2891D103F040BC49F2C552811A48
:10475000904207F07B800DDCC22806F07F82A0F536
:10476000AA401938A8B3A0F57C50B538002888D1E4
:1047700007F068B8102907F06D80A1F20111002937
:104780008DD107F06BB840F23D42881A914207F094
:10479000FE8510DC0D2995D2DFE811F0A33E6838C4
:1047A000A33EA33EA33E6C38A33EA33E70387438AC
:1047B00078387C388038202807F033860ADC0128D6
:1047C00007F00A86102807F03A86112890D107F0E2
:1047D00057BE4CE0212807F02B86A0F6BF400028EA
:1047E00086D107F07BBE46488078FF2806D1444832
:1047F000C078FF2802D109F0CDFE01E009F002FEE9
:1048000007F0A3BE3E48807AFF282DD13C48C07AED
:10481000FF2829D13A48807800063949C97840EA0A
:1048200001403749097940EA01203549497908436F
:10483000344908603248417A007A41EA002032491E
:10484000086030480168491C304809F0D9FC2E48FE
:1048500002682C4801682EA010F08AF809F02EFE9C
:1048600001203549087001E009F0CCFDC8E7244873
:10487000807AFF282DD12248C07AFF2829D12048EC
:10488000807800061E49C97840EA01401C49097930
:1048900040EA01201A49497908431A490860184832
:1048A000417A007A41EA0021174801601548016801
:1048B000491C164809F0A4FC134802681148016815
:1048C0001EA010F055F809F0F9FD012025490870E7
:1048D00001E009F097FD93E70948007AFF2843D1EA
:1048E0000748407AFF283FD10548FEF721FA3DE00E
:1048F00095010020990100209601002097010020D9
:104900003C7D0020A8010020A40100200000040834
:1049100044465520646174613A20436F64654C6578
:104920006E6774683D25782020436865636B435249
:10493000433D25780D0A00000C000020436F64659C
:1049400020646174613A20436F64654C656E6774DE
:10495000683D25782020436865636B4352433D25BD
:10496000780D0A000D00002009F04CFD48E7FE48D4
:104970008079FF2842D1FC48C079FF283ED1FA480F
:10498000C078F949897840EA0120F7494979F64A1F
:10499000127941EA022148434000F4490860F44892
:1049A00009F0B1FBF1490968884224D04FF4007244
:1049B000F049EF489C3809F0A9FBEC480078ED4934
:1049C00081F89C00E9480088010AEA4880F89D10B7
:1049D000E6480068000CE74981F89E00E34800685B
:1049E000010EE44880F89F104FF400720146E04841
:1049F0009C3809F09BFB09F061FD01E009F002FD24
:104A0000FEE602200A9049E0D7490A98095C801E18
:104A1000D94A1154D4490A98401C095C0A98401E8E
:104A20001154D1490A98801C095C0A981154CE4946
:104A30000A98085C9C280BD10A98001D085CCF4995
:104A40000870C9490A98C01D085CCD49087021E06A
:104A5000C5490A98085CF12811D10A98401C085CE5
:104A6000C8490870C0490A98001D085CC64908700A
:104A7000BD490A98C01D085CC44908700AE0BA49DB
:104A80000A98085CFF2805D10A98401C085CFF289A
:104A900000D106E00A98C01C80B20A900A98FA2851
:104AA000B2DB00BF09F00AFDAAE602200A9024E06A
:104AB000AD490A98085CFF2805D10A98401C085C9B
:104AC000FF2800D11CE0A8490A98401C085C03900C
:104AD0000A98085C029003990FF036FFA2490A98E1
:104AE000801C085C28B10A98801C085C039010F0B8
:104AF000C9FB0A98C01C80B20A900A98C828D7DB64
:104B000000BF09F0DBFC7BE69748C078FF280FD197
:104B100095480079FF280BD19348807803900CF0DA
:104B200013FC10B109F0CAFC04E009F06BFC01E0D1
:104B300009F068FC64E68C488078FF287FD18A48B9
:104B4000C078FF287BD14FF480419148FDF78CFC61
:104B500020219048FDF788FC40218E48FDF782FC1B
:104B6000012000908C4803882122A8218B48FDF762
:104B7000F9FE0F2010F086FB012000908848038882
:104B80002522A8218548FDF7EDFE0EF073FE80B2C8
:104B90000990F02077490870002176484170099803
:104BA0000012744988700998C870FF200871487114
:104BB00000BF7C4800780028FBD0002079490870AD
:104BC00040236C4A81217848FCF782FB0998FBF767
:104BD000B4FC9FED760B53EC102BCDE900019DED5D
:104BE000000B51EC100BFBF7B6FBCDE902019DED7C
:104BF000020B53EC102B6FA00FF0BAFE01200090B7
:104C0000674803882422A8216448FDF7ABFE4FF4CF
:104C100080415F48FDF726FC20215E48FDF722FC1D
:104C200040215C48FDF720FC012000905A48038891
:104C30002022A8215948FDF795FE02E0FFE709F080
:104C4000E1FBDDE548480079FF2849D14648407935
:104C5000FF2845D14448C078082836D2DFE800F064
:104C600035040B121920272E082009F005F808201A
:104C70005449088030E0102008F0FEFF1020514910
:104C8000088029E0182008F0F7FF18204D49088017
:104C900022E0202008F0F0FF20204A4908801BE095
:104CA000282008F0E9FF28204649088014E0302039
:104CB00008F0E2FF3020434908800DE0382008F07A
:104CC000DBFF38203F49088006E0102008F0D4FFC1
:104CD00010203C49088000BF00BF09F0EFFB01E055
:104CE00009F090FB8CE52048C078FF280CD11E48C5
:104CF0000079FF2808D1FDF7B3F910B109F0DEFB08
:104D000004E009F07FFB01E009F07CFB78E5164840
:104D1000C078FF2879D114480079FF2875D112484E
:104D2000807810B101286FD170E04FF480411848AD
:104D3000FDF79AFB20211748FDF796FB4021154807
:104D4000FDF790FB01200090134803882122A82141
:104D50001248FDF707FE0120009011480388252224
:104D6000A8210E4830E000003C7D002064000020B7
:104D70009CC000083C0900206E0000206A00002052
:104D80006C000020690000206B0000206D000020F6
:104D900000040240001002402400002000540040A3
:104DA00026000020C401002048030020000000006D
:104DB0000000F43F564D4F4431203D202566206DC4
:104DC000560D0A00A0010020FDF7CCFD4FF416702F
:104DD00010F058FAFCF726F980B20990F020FE494D
:104DE0000870002048700998001288700998C870EF
:104DF000FF2008714871099800EB800040000146CF
:104E00000390F6A00FF0B4FD5DE05DE04FF480414B
:104E1000FA48FDF729FB2021F948FDF725FB402141
:104E2000F748FDF71FFB01200090F6480388212278
:104E3000A821F548FDF796FD01200090F148038870
:104E40002022A821F048FDF78DFD01200090EF48B9
:104E500003882522A821EC48FDF784FD2021E8489D
:104E6000FDF700FB4021E648FDF7FEFA0120009027
:104E7000E64803882422A821E348FDF773FD642057
:104E800010F000FAFCF7CEF880B209900998B0F55E
:104E9000004F01DB00200990F020CF49087000206E
:104EA00048700998001288700998C870FF2008712E
:104EB0004871099800EB8000400001460390D4A09F
:104EC0000FF056FD00BF01E009F09CFA98E4D848C5
:104ED000C078FF2875D1D6480079FF28FAD1D44888
:104EE000807805286ED2DFE800F0036EF4F2F1005E
:104EF0004FF48041C148FDF7B7FA2021C048FDF7C3
:104F0000B3FA4021BE48FDF7ADFA01200090BD483C
:104F100003882122A821BC48FDF724FD0120009030
:104F2000BA4803882522A821B748FDF71BFD642055
:104F300010F0A8F9FCF776F880B20990F020A649A5
:104F40000870002048700998001288700998C8708D
:104F5000FF200871487100BFB64800780028FBD0D8
:104F60000020B449087040239B4A8121B248FCF7D5
:104F7000AFF9099800EB80000146039097A00FF06D
:104F8000F7FC01200090A14803882422A8219E4814
:104F9000FDF7E8FC4FF480419848FDF763FA2021C3
:104FA0009748FDF75FFA40219548FDF75DFA01202B
:104FB0000090944803882022A8219348FDF7D2FC52
:104FC000A5E3A5E3A2E34FF480418C48FDF74CFA3A
:104FD00020218B48FDF748FA40218948FDF742FA25
:104FE00001200090874803882122A8218648FDF7E8
:104FF000B9FC01200090834803882022A821824820
:10500000FDF7B0FC01200090804803882522A821EC
:105010007D48FDF7A7FC20217948FDF723FA4021C0
:105020007748FDF721FA0120009078480388242270
:10503000A8217548FDF796FC642010F023F9FBF7D2
:10504000F1FF80B209900998B0F5004F01DB002014
:105050000990F020604908700020487009980112FA
:105060005D4881705C490998C870FF215A480171F8
:10507000417100BF6F4800780028FBD000206D49C7
:1050800008704023544A81216B48FCF721F90998A4
:1050900000EB8000014603905DA00FF069FC4FF427
:1050A00080415648FDF7DEF920215548FDF7DAF931
:1050B00040215348FDF7D8F901200090514803885A
:1050C0002022A8215048FDF74DFC20E3E7E1EDE068
:1050D000FFE74FF480414948FDF7C6F920214848D1
:1050E000FDF7C2F940214648FDF7BCF901200090C8
:1050F000444803882122A8214348FDF733FC0F20B0
:1051000010F0C0F801200090404803882522A82113
:105110003D48FDF727FC07F009FB0FF07BFAE8B3E9
:10512000FF21F6200FF010FC322010F0ABF8FBF757
:1051300079FF80B20990F02027490870002048705C
:105140000998001288700998C870FF2122480171DF
:10515000FF202149487100BF364800780028FBD065
:1051600000213448017040231B4A81213248FCF75A
:10517000AFF8099800EB8000014603902FA00FF0D4
:10518000F7FBFF21F8200FF0DFFBFF21F2200FF0EB
:10519000DBFB012000901D48038800E05EE0242234
:1051A000A8211948FDF7DEFB4FF480411348FDF7B5
:1051B00059F920211248FDF755F940211048FDF713
:1051C00053F9012000900F4803882022A8210E489F
:1051D000FDF7C8FB69E000003C090020564D4F4434
:1051E0003120656E61626C652063757272656E74E4
:1051F000203D2025642075410D0A00000004024076
:10520000001002402400002000540040260000202E
:10521000564D4F44312064697361626C652063753B
:105220007272656E74203D2025642075410D0A0060
:105230003C7D0020C401002048030020564D4F440F
:10524000312077616B6575702063757272656E745D
:10525000203D2025642075410D0A0000FF21F82023
:105260000FF072FBFF21F2200FF06EFB0120009087
:10527000FA4803882422A821F948FDF773FB4FF46C
:105280008041F848FDF7EEF82021F748FDF7EAF8ED
:105290004021F548FDF7E8F801200090F348038825
:1052A0002022A821EE48FDF75DFB30E24FF480415B
:1052B000EC48FDF7D9F82021EB48FDF7D5F840215F
:1052C000E948FDF7CFF801200090E8480388212243
:1052D000A821E348FDF746FB0F200FF0D3FF012084
:1052E0000090DE4803882522A821DD48FDF73AFB1F
:1052F00007F01CFA0FF08EF9F0B3FF21F6200FF043
:1053000023FB02200FF0BEFFFF21F8200FF01CFB53
:105310004FF4FA700A9002E001200FF0B3FF0A98F0
:10532000401E80B20A9030B1442007F0E3FF48F2FB
:1053300002018842F0D10A98A8BB442007F0DAFFA6
:1053400001460390032009F077F8FF21F2200FF0C7
:10535000FBFA01200090C14803882422A821C048FC
:10536000FDF700FB4FF48041BE48FDF77BF820219C
:10537000BD48FDF777F800E069E04021BA48FDF745
:1053800073F801200090B94803882022A821B4486E
:10539000FDF7E8FA64200FF075FF0021B4480DF026
:1053A000E5FEFEF7EBB9FFE7FF21F2200FF0CCFAA4
:1053B00019200FF067FFFBF735FE80B20990F0204F
:1053C000AC4908700020487009980112A948817002
:1053D000A8490998C870FF21A6480171FF20A54976
:1053E000487100BFA44800780028FBD00020A249E3
:1053F000087040239F4A81219D48FBF769FF099867
:1054000000EB8000014603909CA00FF0B1FA012050
:105410000090924803882422A8219148FDF7A2FA1F
:105420004FF480418F48FDF71DF820218E48FDF78D
:1054300019F840218C48FDF717F8012000908B489F
:1054400003882022A8218648FDF78CFA26E0FF2158
:10545000F8200FF079FAFF21F2200FF075FA012001
:1054600000907E4803882422A8217D48FDF77AFA1F
:105470004FF480417B48FCF7F5FF20217A48FCF788
:10548000F1FF40217848FCF7EFFF012000907748BA
:1054900003882022A8217248FDF764FA37E14FF40F
:1054A00080417048FCF7E0FF20216F48FCF7DCFFEB
:1054B00040216D48FCF7D6FF012000906B4803881F
:1054C0002122A8216648FDF74DFA0F200FF0DAFEE1
:1054D00001200090614803882522A8216048FDF73B
:1054E00041FA07F023F90FF095F8E0B3FF21F62019
:1054F0000FF02AFA02200FF0C5FE4021F3200FF032
:1055000023FA4FF4FA700A9002E001200FF0BAFE7D
:105510000A98401E80B20A9020B1442007F0EAFEAB
:105520005928F2D1FBF77EFD80B2099002E00120FC
:105530000FF0A8FE0A98401E80B20A9030B14420B5
:1055400007F0D8FE44F269018842F0D10A98A0BB66
:10555000442007F0CFFE01460390022008F06CFFC4
:10556000FF21F82000E0A9E00FF0EEF9FF21F22082
:105570000FF0EAF901200090384803882422A8217E
:105580003748FDF7EFF94FF480413648FCF76AFFE2
:1055900020213548FCF766FF40213348FCF764FFC3
:1055A00001200090314803882022A8212C48FDF7D3
:1055B000D9F964200FF066FEF3E6FFE7F0202D49ED
:1055C000087000212B484170099800122949887001
:1055D0000998C870FF2127480171FF2025494871AB
:1055E00000BF254800780028FBD000202249087021
:1055F0004023204A81211E48FBF76AFE099800EBF0
:1056000080000146039025A00FF0B2F9FF21F82099
:105610000FF09AF9FF21F2200FF096F90120009087
:105620000E4803882422A8210D48FDF79BF94FF46A
:1056300080410C48FCF716FF20210B48FCF712FFB5
:1056400040210948FCF710FF01200090074803881B
:105650002022A8210248FDF785F956E02600002007
:1056600000540040000402400010024024000020CA
:10567000480300203C090020C4010020564D4F443F
:105680003120736C6565702063757272656E74206D
:105690003D2025642075410D0A000000564D4F4401
:1056A0003120463334302063757272656E74203D4C
:1056B0002025642075410D0A00000000FF21F8201C
:1056C0000FF042F9FF21F2200FF03EF90120009087
:1056D000FE4803882422A821FD48FDF743F94FF432
:1056E0008041FC48FCF7BEFE2021FB48FCF7BAFED7
:1056F0004021F948FCF7B8FE01200090F7480388E4
:105700002022A821F248FDF72DF900E000BF01E0BA
:1057100008F078FE06F019BF40F253710620FDF73D
:10572000EBF94021EB48FCF79DFE4FF416700FF0AB
:10573000A9FD4FF48041E748FCF796FE2021E6489A
:10574000FCF792FE4021E448FCF78CFE012000901B
:10575000E24803882122A821DD48FDF703F9012052
:105760000090DA4803882522A821D948FDF7FAF8E5
:105770004FF4FA500FF086FD4021D648FCF774FE36
:1057800001200090D14803882422A821D048FDF7A9
:10579000E9F84FF48041CF48FCF764FE2021CE4861
:1057A000FCF760FE4021CC48FCF75EFE0120009033
:1057B000CA4803882022A821C548FDF7D3F84FF432
:1057C0007A700FF05FFD4FF48041C248FCF74CFE49
:1057D0002021C148FCF748FE4021BF48FCF742FEAB
:1057E00001200090BD4803882122A821B848FDF778
:1057F000B9F801200090B54803882522A821B448B3
:10580000FDF7B0F80F200FF03DFDFCF74DFE012134
:10581000B348FCF727FEEF2008F012FA012008F049
:105820000FFA012008F00CFA002008F009FA032012
:1058300008F006FA072008F003FA002008F000FA42
:105840000B2008F0FDF90121A548FCF70DFE0A2008
:105850000FF018FD07F0BCFF18BB08F0D3FD0120C6
:1058600000909A4803882422A8219948FDF77AF8E5
:105870004FF480419748FCF7F5FD20219648FCF74E
:10588000F1FD40219448FCF7EFFD01200090934882
:1058900003882022A8218E48FDF764F805200FF028
:1058A000F1FC01200090894803882422A82188481F
:1058B000FDF758F84FF480418648FCF7D3FD2021CE
:1058C0008548FCF7CFFD40218348FCF7CDFD012042
:1058D0000090824803882022A8217D48FDF742F8E5
:1058E00005200FF0CFFC4FF4FA610520FDF704F915
:1058F00010E70DF09FFD0DE77A488078FF2806D16C
:105900007848C078FF2802D108F01AFE01E008F0BC
:1059100079FDFFE673480079FF281ED17148407970
:10592000FF281AD16F48C078FF2808D10120002332
:105930004022A82100906648FDF714F80AE00120F3
:1059400000906848C07803464F22A8210390604821
:10595000FDF708F808F0B2FD01E008F053FDD9E6C4
:1059600060480079FF2812D15E484079FF280ED1A7
:105970005C48C07820B908215748FCF773FD03E064
:1059800008215548FCF770FD08F098FD01E008F08B
:1059900039FDBFE653480079FF2812D151484079BC
:1059A000FF280ED14F48C07820B904214A48FCF79F
:1059B00059FD03E004214848FCF756FD08F07EFD40
:1059C00001E008F01FFDA5E64648C078FF2846D153
:1059D00044480079FF2842D1012000903F480388C5
:1059E0002122A8213A48FCF7BDFF64200FF04AFCB1
:1059F000FBF722FB80B209900998B0F5004F01DB5C
:105A000000200990F020384908700020487009985B
:105A1000001288700998C870FF200871487100BF93
:105A2000324800780028FBD000203049087040231D
:105A30002D4A81212E48FBF74BFC099800EB800092
:105A4000014603902BA00EF093FF01200090234805
:105A500003882022A8211E48FCF784FF01E008F0FB
:105A6000D1FC57E61F48C078FF287CD11D4800793B
:105A7000FF28FAD11B488078052875D2DFE800F0AE
:105A80000397FEFDFC004FF480411248FCF7ECFC4C
:105A900020211148FCF7E8FC40210F48FCF7E2FC0C
:105AA000012000900D4803882122A8210848FCF716
:105AB00059FF01200090054803882522A8210448A9
:105AC000FCF750FF64200FF0DDFB23E026000020F0
:105AD0000054004000040240001002402400002056
